{
  "contractName": "ICO",
  "abi": [
    {
      "inputs": [
        {
          "internalType": "address",
          "name": "_tokenAddress",
          "type": "address"
        },
        {
          "internalType": "address",
          "name": "_whitelistAddress",
          "type": "address"
        },
        {
          "internalType": "address payable",
          "name": "_beneficiary",
          "type": "address"
        },
        {
          "internalType": "uint256",
          "name": "_baseEthUSDRate",
          "type": "uint256"
        }
      ],
      "stateMutability": "nonpayable",
      "type": "constructor"
    },
    {
      "anonymous": false,
      "inputs": [
        {
          "indexed": true,
          "internalType": "address",
          "name": "investor",
          "type": "address"
        },
        {
          "indexed": false,
          "internalType": "uint256",
          "name": "amount",
          "type": "uint256"
        },
        {
          "indexed": false,
          "internalType": "uint256",
          "name": "bonus",
          "type": "uint256"
        },
        {
          "indexed": false,
          "internalType": "uint256",
          "name": "timestamp",
          "type": "uint256"
        }
      ],
      "name": "Buy",
      "type": "event"
    },
    {
      "anonymous": false,
      "inputs": [
        {
          "indexed": true,
          "internalType": "address",
          "name": "investor",
          "type": "address"
        },
        {
          "indexed": false,
          "internalType": "uint256",
          "name": "amount",
          "type": "uint256"
        },
        {
          "indexed": false,
          "internalType": "uint256",
          "name": "timestamp",
          "type": "uint256"
        }
      ],
      "name": "EthReturned",
      "type": "event"
    },
    {
      "anonymous": false,
      "inputs": [
        {
          "indexed": false,
          "internalType": "address",
          "name": "beneficiary",
          "type": "address"
        },
        {
          "indexed": false,
          "internalType": "uint256",
          "name": "timestamp",
          "type": "uint256"
        }
      ],
      "name": "ICOInitialized",
      "type": "event"
    },
    {
      "anonymous": false,
      "inputs": [
        {
          "indexed": true,
          "internalType": "address",
          "name": "previousOwner",
          "type": "address"
        },
        {
          "indexed": true,
          "internalType": "address",
          "name": "newOwner",
          "type": "address"
        }
      ],
      "name": "OwnershipTransferred",
      "type": "event"
    },
    {
      "anonymous": false,
      "inputs": [
        {
          "indexed": false,
          "internalType": "uint256",
          "name": "timestamp",
          "type": "uint256"
        }
      ],
      "name": "Paused",
      "type": "event"
    },
    {
      "anonymous": false,
      "inputs": [
        {
          "indexed": false,
          "internalType": "enum ICO.Phase",
          "name": "phase",
          "type": "uint8"
        },
        {
          "indexed": false,
          "internalType": "uint256",
          "name": "timestamp",
          "type": "uint256"
        }
      ],
      "name": "PhaseChange",
      "type": "event"
    },
    {
      "anonymous": false,
      "inputs": [
        {
          "indexed": false,
          "internalType": "uint256",
          "name": "timestamp",
          "type": "uint256"
        }
      ],
      "name": "Unpaused",
      "type": "event"
    },
    {
      "inputs": [
        {
          "internalType": "uint256",
          "name": "",
          "type": "uint256"
        }
      ],
      "name": "Bonus",
      "outputs": [
        {
          "internalType": "uint256",
          "name": "",
          "type": "uint256"
        }
      ],
      "stateMutability": "view",
      "type": "function"
    },
    {
      "inputs": [],
      "name": "beneficiary",
      "outputs": [
        {
          "internalType": "address payable",
          "name": "",
          "type": "address"
        }
      ],
      "stateMutability": "view",
      "type": "function"
    },
    {
      "inputs": [],
      "name": "ethUSDRate",
      "outputs": [
        {
          "internalType": "uint256",
          "name": "",
          "type": "uint256"
        }
      ],
      "stateMutability": "view",
      "type": "function"
    },
    {
      "inputs": [],
      "name": "owner",
      "outputs": [
        {
          "internalType": "address",
          "name": "",
          "type": "address"
        }
      ],
      "stateMutability": "view",
      "type": "function"
    },
    {
      "inputs": [],
      "name": "pause",
      "outputs": [],
      "stateMutability": "nonpayable",
      "type": "function"
    },
    {
      "inputs": [],
      "name": "paused",
      "outputs": [
        {
          "internalType": "bool",
          "name": "",
          "type": "bool"
        }
      ],
      "stateMutability": "view",
      "type": "function"
    },
    {
      "inputs": [],
      "name": "phase",
      "outputs": [
        {
          "internalType": "enum ICO.Phase",
          "name": "",
          "type": "uint8"
        }
      ],
      "stateMutability": "view",
      "type": "function"
    },
    {
      "inputs": [],
      "name": "renounceOwnership",
      "outputs": [],
      "stateMutability": "nonpayable",
      "type": "function"
    },
    {
      "inputs": [
        {
          "internalType": "address",
          "name": "newOwner",
          "type": "address"
        }
      ],
      "name": "transferOwnership",
      "outputs": [],
      "stateMutability": "nonpayable",
      "type": "function"
    },
    {
      "inputs": [],
      "name": "unpause",
      "outputs": [],
      "stateMutability": "nonpayable",
      "type": "function"
    },
    {
      "stateMutability": "payable",
      "type": "receive"
    },
    {
      "inputs": [],
      "name": "buy",
      "outputs": [],
      "stateMutability": "payable",
      "type": "function"
    },
    {
      "inputs": [
        {
          "internalType": "uint256",
          "name": "_value",
          "type": "uint256"
        }
      ],
      "name": "rebase",
      "outputs": [],
      "stateMutability": "nonpayable",
      "type": "function"
    }
  ],
  "bytecode": "0x60806040526040518060c001604052806109c481526020016107d081526020016105dc81526020016103e881526020016101f48152602001600081525060069060066200004e92919062000339565b506000600d60006101000a81548160ff021916908360068111156200006f57fe5b02179055503480156200008157600080fd5b5060405162001ecc38038062001ecc83398181016040526080811015620000a757600080fd5b8101908080519060200190929190805190602001909291908051906020019092919080519060200190929190505050816000620000e96200033160201b60201c565b9050806000806101000a81548173ffffffffffffffffffffffffffffffffffffffff021916908373ffffffffffffffffffffffffffffffffffffffff1602179055508073ffffffffffffffffffffffffffffffffffffffff16600073ffffffffffffffffffffffffffffffffffffffff167f8be0079c531659141344cd1fd0a4f28419497f9722a3daafe3b4186f6b6457e060405160405180910390a35060008060146101000a81548160ff02191690831515021790555080600160006101000a81548173ffffffffffffffffffffffffffffffffffffffff021916908373ffffffffffffffffffffffffffffffffffffffff1602179055505082600260006101000a81548173ffffffffffffffffffffffffffffffffffffffff021916908373ffffffffffffffffffffffffffffffffffffffff16021790555083600360006101000a81548173ffffffffffffffffffffffffffffffffffffffff021916908373ffffffffffffffffffffffffffffffffffffffff16021790555081600460006101000a81548173ffffffffffffffffffffffffffffffffffffffff021916908373ffffffffffffffffffffffffffffffffffffffff160217905550806005819055506000600d60006101000a81548160ff02191690836006811115620002cd57fe5b02179055507f6fef4b3c3822e5a5ded2809fccffeaf8d2c0ebf23994221ccc6758ff0fe97e0a8242604051808373ffffffffffffffffffffffffffffffffffffffff1681526020018281526020019250505060405180910390a1505050506200039d565b600033905090565b82600781019282156200036b579160200282015b828111156200036a5782518255916020019190600101906200034d565b5b5090506200037a91906200037e565b5090565b5b80821115620003995760008160009055506001016200037f565b5090565b611b1f80620003ad6000396000f3fe6080604052600436106100ab5760003560e01c80638918867c116100645780638918867c146101c15780638da5cb5b146101ec578063a6f2ae3a1461022d578063b1c9fe6e14610237578063bc4f2d6d1461026d578063f2fde38b146102a8576100ba565b806338af3eed146100bf5780633f4ba83a146101005780635c975abb146101175780636356cdac14610144578063715018a6146101935780638456cb59146101aa576100ba565b366100ba576100b86102f9565b005b600080fd5b3480156100cb57600080fd5b506100d4611091565b604051808273ffffffffffffffffffffffffffffffffffffffff16815260200191505060405180910390f35b34801561010c57600080fd5b506101156110b7565b005b34801561012357600080fd5b5061012c611232565b60405180821515815260200191505060405180910390f35b34801561015057600080fd5b5061017d6004803603602081101561016757600080fd5b8101908080359060200190929190505050611248565b6040518082815260200191505060405180910390f35b34801561019f57600080fd5b506101a8611260565b005b3480156101b657600080fd5b506101bf6113cd565b005b3480156101cd57600080fd5b506101d661154a565b6040518082815260200191505060405180910390f35b3480156101f857600080fd5b50610201611550565b604051808273ffffffffffffffffffffffffffffffffffffffff16815260200191505060405180910390f35b6102356102f9565b005b34801561024357600080fd5b5061024c611579565b6040518082600681111561025c57fe5b815260200191505060405180910390f35b34801561027957600080fd5b506102a66004803603602081101561029057600080fd5b810190808035906020019092919050505061158c565b005b3480156102b457600080fd5b506102f7600480360360208110156102cb57600080fd5b81019080803573ffffffffffffffffffffffffffffffffffffffff16906020019092919050505061163c565b005b600060149054906101000a900460ff161561037c576040517f08c379a00000000000000000000000000000000000000000000000000000000081526004018080602001828103825260108152602001807f5061757361626c653a207061757365640000000000000000000000000000000081525060200191505060405180910390fd5b6000600681111561038957fe5b600d60009054906101000a900460ff1660068111156103a457fe5b1480156103ca57506103c66213c6806360ef2d2861182e90919063ffffffff16565b4210155b156103f4576001600d60006101000a81548160ff021916908360068111156103ee57fe5b02179055505b6001600681111561040157fe5b600d60009054906101000a900460ff16600681111561041c57fe5b148015610442575061043e62278d006360ef2d2861182e90919063ffffffff16565b4210155b1561046c576002600d60006101000a81548160ff0219169083600681111561046657fe5b02179055505b6002600681111561047957fe5b600d60009054906101000a900460ff16600681111561049457fe5b1480156104ba57506104b66230c7806360ef2d2861182e90919063ffffffff16565b4210155b156104ea57600360068111156104cc57fe5b600d60009054906101000a900460ff1660068111156104e757fe5b50505b600360068111156104f757fe5b600d60009054906101000a900460ff16600681111561051257fe5b1480156105385750610534623a02006360ef2d2861182e90919063ffffffff16565b4210155b15610568576004600681111561054a57fe5b600d60009054906101000a900460ff16600681111561056557fe5b50505b6004600681111561057557fe5b600d60009054906101000a900460ff16600681111561059057fe5b1480156105b657506105b262433c806360ef2d2861182e90919063ffffffff16565b4210155b156105e0576005600d60006101000a81548160ff021916908360068111156105da57fe5b02179055505b600560068111156105ed57fe5b600d60009054906101000a900460ff16600681111561060857fe5b14801561061957506361423ba74210155b15610643576006600d60006101000a81548160ff0219169083600681111561063d57fe5b02179055505b60068081111561064f57fe5b600d60009054906101000a900460ff16600681111561066a57fe5b14156106de576040517f08c379a000000000000000000000000000000000000000000000000000000000815260040180806020018281038252600d8152602001807f49434f2068617320656e6465640000000000000000000000000000000000000081525060200191505060405180910390fd5b6107106a52b7d2dcc80cd2e4000000610702600554346118b690919063ffffffff16565b61193c90919063ffffffff16565b6101f4111561076a576040517f08c379a000000000000000000000000000000000000000000000000000000000815260040180806020018281038252602a815260200180611a77602a913960400191505060405180910390fd5b600260009054906101000a900473ffffffffffffffffffffffffffffffffffffffff1673ffffffffffffffffffffffffffffffffffffffff1663d936547e336040518263ffffffff1660e01b8152600401808273ffffffffffffffffffffffffffffffffffffffff16815260200191505060206040518083038186803b1580156107f357600080fd5b505afa158015610807573d6000803e3d6000fd5b505050506040513d602081101561081d57600080fd5b81019080805190602001909291905050506108a0576040517f08c379a000000000000000000000000000000000000000000000000000000000815260040180806020018281038252601f8152602001807f4163636f756e742061646472657373206e6f742077686974656c69737465640081525060200191505060405180910390fd5b60006108e766038d7ea4c680006108d96402540be4006108cb600554346118b690919063ffffffff16565b6118b690919063ffffffff16565b61193c90919063ffffffff16565b9050600061093a61271061092c6006600d60009054906101000a900460ff16600681111561091157fe5b6007811061091b57fe5b0154856118b690919063ffffffff16565b61193c90919063ffffffff16565b905061094f818361182e90919063ffffffff16565b9150600360009054906101000a900473ffffffffffffffffffffffffffffffffffffffff1673ffffffffffffffffffffffffffffffffffffffff166370a08231306040518263ffffffff1660e01b8152600401808273ffffffffffffffffffffffffffffffffffffffff16815260200191505060206040518083038186803b1580156109da57600080fd5b505afa1580156109ee573d6000803e3d6000fd5b505050506040513d6020811015610a0457600080fd5b81019080805190602001909291905050508211610bc957600360009054906101000a900473ffffffffffffffffffffffffffffffffffffffff1673ffffffffffffffffffffffffffffffffffffffff1663a9059cbb33846040518363ffffffff1660e01b8152600401808373ffffffffffffffffffffffffffffffffffffffff16815260200182815260200192505050602060405180830381600087803b158015610aae57600080fd5b505af1158015610ac2573d6000803e3d6000fd5b505050506040513d6020811015610ad857600080fd5b8101908080519060200190929190505050610b5b576040517f08c379a00000000000000000000000000000000000000000000000000000000081526004018080602001828103825260158152602001807f546f6b656e207472616e73666572206661696c6564000000000000000000000081525060200191505060405180910390fd5b600460009054906101000a900473ffffffffffffffffffffffffffffffffffffffff1673ffffffffffffffffffffffffffffffffffffffff166108fc349081150290604051600060405180830381858888f19350505050158015610bc3573d6000803e3d6000fd5b50611007565b600360009054906101000a900473ffffffffffffffffffffffffffffffffffffffff1673ffffffffffffffffffffffffffffffffffffffff166370a08231306040518263ffffffff1660e01b8152600401808273ffffffffffffffffffffffffffffffffffffffff16815260200191505060206040518083038186803b158015610c5257600080fd5b505afa158015610c66573d6000803e3d6000fd5b505050506040513d6020811015610c7c57600080fd5b810190808051906020019092919050505091506000610ce8610cd9600554610ccb6402540be400610cbd66038d7ea4c68000896118b690919063ffffffff16565b61193c90919063ffffffff16565b61193c90919063ffffffff16565b346119c590919063ffffffff16565b9050600460009054906101000a900473ffffffffffffffffffffffffffffffffffffffff1673ffffffffffffffffffffffffffffffffffffffff166108fc610d3983346119c590919063ffffffff16565b9081150290604051600060405180830381858888f19350505050158015610d64573d6000803e3d6000fd5b503373ffffffffffffffffffffffffffffffffffffffff166108fc829081150290604051600060405180830381858888f19350505050158015610dab573d6000803e3d6000fd5b50600360009054906101000a900473ffffffffffffffffffffffffffffffffffffffff1673ffffffffffffffffffffffffffffffffffffffff1663a9059cbb33600360009054906101000a900473ffffffffffffffffffffffffffffffffffffffff1673ffffffffffffffffffffffffffffffffffffffff166370a08231306040518263ffffffff1660e01b8152600401808273ffffffffffffffffffffffffffffffffffffffff16815260200191505060206040518083038186803b158015610e7457600080fd5b505afa158015610e88573d6000803e3d6000fd5b505050506040513d6020811015610e9e57600080fd5b81019080805190602001909291905050506040518363ffffffff1660e01b8152600401808373ffffffffffffffffffffffffffffffffffffffff16815260200182815260200192505050602060405180830381600087803b158015610f0257600080fd5b505af1158015610f16573d6000803e3d6000fd5b505050506040513d6020811015610f2c57600080fd5b8101908080519060200190929190505050610faf576040517f08c379a00000000000000000000000000000000000000000000000000000000081526004018080602001828103825260158152602001807f546f6b656e207472616e73666572206661696c6564000000000000000000000081525060200191505060405180910390fd5b3373ffffffffffffffffffffffffffffffffffffffff167f64ed6433cc53ab095a8697cd8771e74b1ff6078113404c5d83e7471431501fad8242604051808381526020018281526020019250505060405180910390a2505b3373ffffffffffffffffffffffffffffffffffffffff167fbeae048c6d270d9469f86cf6e8fedda3c60ad770f16c24c9fc131c8e9a09101d836006600d60009054906101000a900460ff16600681111561105d57fe5b6007811061106757fe5b01544260405180848152602001838152602001828152602001935050505060405180910390a25050565b600460009054906101000a900473ffffffffffffffffffffffffffffffffffffffff1681565b600160009054906101000a900473ffffffffffffffffffffffffffffffffffffffff1673ffffffffffffffffffffffffffffffffffffffff163373ffffffffffffffffffffffffffffffffffffffff161461115d576040517f08c379a0000000000000000000000000000000000000000000000000000000008152600401808060200182810382526028815260200180611aa16028913960400191505060405180910390fd5b600060149054906101000a900460ff166111df576040517f08c379a00000000000000000000000000000000000000000000000000000000081526004018080602001828103825260148152602001807f5061757361626c653a206e6f742070617573656400000000000000000000000081525060200191505060405180910390fd5b60008060146101000a81548160ff0219169083151502179055507f9dd715fed52c25e642f97653bb4c4339ad98fe6d6e130348be82ae5d86383a8c426040518082815260200191505060405180910390a1565b60008060149054906101000a900460ff16905090565b6006816007811061125557fe5b016000915090505481565b611268611a48565b73ffffffffffffffffffffffffffffffffffffffff16611286611550565b73ffffffffffffffffffffffffffffffffffffffff161461130f576040517f08c379a00000000000000000000000000000000000000000000000000000000081526004018080602001828103825260208152602001807f4f776e61626c653a2063616c6c6572206973206e6f7420746865206f776e657281525060200191505060405180910390fd5b600073ffffffffffffffffffffffffffffffffffffffff1660008054906101000a900473ffffffffffffffffffffffffffffffffffffffff1673ffffffffffffffffffffffffffffffffffffffff167f8be0079c531659141344cd1fd0a4f28419497f9722a3daafe3b4186f6b6457e060405160405180910390a360008060006101000a81548173ffffffffffffffffffffffffffffffffffffffff021916908373ffffffffffffffffffffffffffffffffffffffff160217905550565b600160009054906101000a900473ffffffffffffffffffffffffffffffffffffffff1673ffffffffffffffffffffffffffffffffffffffff163373ffffffffffffffffffffffffffffffffffffffff1614611473576040517f08c379a0000000000000000000000000000000000000000000000000000000008152600401808060200182810382526028815260200180611aa16028913960400191505060405180910390fd5b600060149054906101000a900460ff16156114f6576040517f08c379a00000000000000000000000000000000000000000000000000000000081526004018080602001828103825260108152602001807f5061757361626c653a207061757365640000000000000000000000000000000081525060200191505060405180910390fd5b6001600060146101000a81548160ff0219169083151502179055507f32fb7c9891bc4f963c7de9f1186d2a7755c7d6e9f4604dabe1d8bb3027c2f49e426040518082815260200191505060405180910390a1565b60055481565b60008060009054906101000a900473ffffffffffffffffffffffffffffffffffffffff16905090565b600d60009054906101000a900460ff1681565b600460009054906101000a900473ffffffffffffffffffffffffffffffffffffffff1673ffffffffffffffffffffffffffffffffffffffff163373ffffffffffffffffffffffffffffffffffffffff1614611632576040517f08c379a0000000000000000000000000000000000000000000000000000000008152600401808060200182810382526028815260200180611aa16028913960400191505060405180910390fd5b8060058190555050565b611644611a48565b73ffffffffffffffffffffffffffffffffffffffff16611662611550565b73ffffffffffffffffffffffffffffffffffffffff16146116eb576040517f08c379a00000000000000000000000000000000000000000000000000000000081526004018080602001828103825260208152602001807f4f776e61626c653a2063616c6c6572206973206e6f7420746865206f776e657281525060200191505060405180910390fd5b600073ffffffffffffffffffffffffffffffffffffffff168173ffffffffffffffffffffffffffffffffffffffff161415611771576040517f08c379a0000000000000000000000000000000000000000000000000000000008152600401808060200182810382526026815260200180611a516026913960400191505060405180910390fd5b8073ffffffffffffffffffffffffffffffffffffffff1660008054906101000a900473ffffffffffffffffffffffffffffffffffffffff1673ffffffffffffffffffffffffffffffffffffffff167f8be0079c531659141344cd1fd0a4f28419497f9722a3daafe3b4186f6b6457e060405160405180910390a3806000806101000a81548173ffffffffffffffffffffffffffffffffffffffff021916908373ffffffffffffffffffffffffffffffffffffffff16021790555050565b6000808284019050838110156118ac576040517f08c379a000000000000000000000000000000000000000000000000000000000815260040180806020018281038252601b8152602001807f536166654d6174683a206164646974696f6e206f766572666c6f77000000000081525060200191505060405180910390fd5b8091505092915050565b6000808314156118c95760009050611936565b60008284029050828482816118da57fe5b0414611931576040517f08c379a0000000000000000000000000000000000000000000000000000000008152600401808060200182810382526021815260200180611ac96021913960400191505060405180910390fd5b809150505b92915050565b60008082116119b3576040517f08c379a000000000000000000000000000000000000000000000000000000000815260040180806020018281038252601a8152602001807f536166654d6174683a206469766973696f6e206279207a65726f00000000000081525060200191505060405180910390fd5b8183816119bc57fe5b04905092915050565b600082821115611a3d576040517f08c379a000000000000000000000000000000000000000000000000000000000815260040180806020018281038252601e8152602001807f536166654d6174683a207375627472616374696f6e206f766572666c6f77000081525060200191505060405180910390fd5b818303905092915050565b60003390509056fe4f776e61626c653a206e6577206f776e657220697320746865207a65726f2061646472657373416d6f756e74206c657373207468616e206d696e696d756d20696e766573746d656e7420616d6f756e74556e617574686f7269736564206163636573733a204e6f74207468652062656e6566696369617279536166654d6174683a206d756c7469706c69636174696f6e206f766572666c6f77a264697066735822122057d4ccdb560737e9b4c9fcd668232ce69be921897ad25ee36c5225784a388b7864736f6c634300060c0033",
  "immutableReferences": {},
  "source": "// SPDX-License-Identifier: Unlicensed\npragma solidity ^0.6.12;\n\nimport { SafeMath } from \"@openzeppelin/contracts/math/SafeMath.sol\";\nimport \"@openzeppelin/contracts/token/ERC20/IERC20.sol\";\nimport \"@chainlink/contracts/src/v0.6/interfaces/AggregatorV3Interface.sol\";\nimport \"./QuillToken.sol\";\nimport \"./Whitelist.sol\";\nimport \"./Pausable.sol\";\n\ncontract ICO is Pausable\n{\n    using SafeMath for uint256;\n    \n    Whitelist private whitelist;\n    QuillToken private token;\n    enum Phase { Private, Pre, Crowd1, Crowd2, Crowd3, Crowd4, Finish }\n\n    address payable public beneficiary; // Address of the client's wallet\n    // address public ethUSDPricefeedAddress; // Address of the pricefeed contract from Chainlink\n    uint256 constant START_TIME = 1626287400; // 15th July 2021 00:00:00 hrs (+5:30 GMT)\n    uint256 constant END_TIME = 1631730599; // 15th September 2021 23:59:59 hrs (+5:30 GMT)\n    uint256 constant TOKEN_RATE = 1e15; // Price of QUILL token in USD ($0.001) represented in bp format ()\n    uint256 public ethUSDRate; // ETH-USD Rate\n    uint256[7] public Bonus = [uint256(2500), uint256(2000), uint256(1500), uint256(1000), uint256(500), uint256(0)];\n    Phase public phase = Phase.Private;\n\n\n    event ICOInitialized(address beneficiary, uint256 timestamp);\n    event PhaseChange(Phase phase, uint256 timestamp);\n    event Buy(address indexed investor, uint256 amount, uint256 bonus, uint256 timestamp);\n    event EthReturned(address indexed investor, uint256 amount, uint256 timestamp);\n\n\n    // Redundant ?\n    modifier onlyBeneficiary() \n    {\n        require(msg.sender == beneficiary, \"Unauthorised access: Not the beneficiary\");\n        _;\n    }\n    \n    modifier changePhase() {\n        if(phase == Phase.Private && block.timestamp >= START_TIME.add(15 days))\n            phase = Phase.Pre;\n        if(phase == Phase.Pre && block.timestamp >= START_TIME.add(30 days))\n            phase = Phase.Crowd1;\n        if(phase == Phase.Crowd1 && block.timestamp >= START_TIME.add(30 days + 1 weeks))\n            phase == Phase.Crowd2;\n        if(phase == Phase.Crowd2 && block.timestamp >= START_TIME.add(30 days + 2 weeks))\n            phase == Phase.Crowd3;\n        if(phase == Phase.Crowd3 && block.timestamp >= START_TIME.add(30 days + 3 weeks))\n            phase = Phase.Crowd4;\n        if(phase == Phase.Crowd4 && block.timestamp >= END_TIME)\n            phase = Phase.Finish;\n        _;\n    }\n\n    constructor(\n        address _tokenAddress, \n        address _whitelistAddress,\n        address payable _beneficiary,\n        // address _pricefeed, // Enable this during deployment to testnet\n        uint256 _baseEthUSDRate // Remove this when deploying to the testnet and set the rate using oracle\n    ) public Pausable(_beneficiary)\n    {\n        whitelist = Whitelist(_whitelistAddress);\n        token = QuillToken(_tokenAddress);\n        beneficiary = _beneficiary;\n        // ethUSDPricefeedAddress = _pricefeed; //Enable this during deployment to testnet\n        ethUSDRate = _baseEthUSDRate;\n        phase = Phase.Private;\n\n        emit ICOInitialized(_beneficiary, block.timestamp);\n    }\n\n    receive() external payable\n    {\n        buy();\n    }\n\n    function buy() public payable whenNotPaused changePhase\n    {\n        require(phase != Phase.Finish, \"ICO has ended\");\n\n        // uint256 ethUSDRate = priceFeedData(ethUSDPricefeedAddress); // Enable this during deployment to testnet\n\n        require((uint(500)) <= msg.value.mul(ethUSDRate).div(1e26), \"Amount less than minimum investment amount\");\n        require(whitelist.whitelisted(msg.sender), \"Account address not whitelisted\");\n\n        // To calculate token amount we need the ethUSDRate, the ether sent and the bonus rate\n        uint256 tokenAmount = (msg.value).mul(ethUSDRate).mul(1e10).div(TOKEN_RATE);\n        uint256 bonusAmount = tokenAmount.mul(Bonus[uint256(phase)]).div(1e4);\n        tokenAmount = tokenAmount.add(bonusAmount);\n\n        if(tokenAmount <= token.balanceOf(address(this)))\n        {\n            require(token.transfer(msg.sender, tokenAmount), \"Token transfer failed\");\n            beneficiary.transfer(msg.value);\n        }\n\n        else\n        {\n            tokenAmount = token.balanceOf(address(this));\n            uint256 ethAmountLeft = (msg.value).sub(tokenAmount.mul(TOKEN_RATE).div(1e10).div(ethUSDRate));\n            beneficiary.transfer(msg.value.sub(ethAmountLeft));\n            msg.sender.transfer(ethAmountLeft);\n\n            require(token.transfer(msg.sender, token.balanceOf(address(this))), \"Token transfer failed\");\n            emit EthReturned(msg.sender, ethAmountLeft, block.timestamp);\n        }   \n\n        emit Buy(msg.sender, tokenAmount, Bonus[uint256(phase)], block.timestamp);\n    }\n\n    // Enable the following function when deploying to testnet\n    // function priceFeedData(address _aggregatorAddress)\n    //     internal\n    //     view\n    //     returns (uint256)\n    // {\n    //     (, int256 price, , , ) = AggregatorV3Interface(_aggregatorAddress).latestRoundData();\n\n    //     return uint256(price);\n    // }\n\n    // Functions for testing\n    function rebase(uint256 _value) external onlyBeneficiary\n    {\n        ethUSDRate = _value;\n    }\n}",
  "sourcePath": "/media/rashtrakoff/CHINMAYHDD/Blockchain_Projects/ICO/contracts/ICO.sol",
  "compiler": {
    "name": "solc",
    "version": "0.6.12+commit.27d51765.Emscripten.clang"
  },
  "schemaVersion": "3.3.4",
  "updatedAt": "2021-05-06T03:56:11.268Z",
  "devdoc": {
    "kind": "dev",
    "methods": {
      "owner()": {
        "details": "Returns the address of the current owner."
      },
      "pause()": {
        "details": "Called by a pauser to pause, triggers stopped state."
      },
      "paused()": {
        "details": "Returns true if the contract is paused, and false otherwise."
      },
      "renounceOwnership()": {
        "details": "Leaves the contract without owner. It will not be possible to call `onlyOwner` functions anymore. Can only be called by the current owner. NOTE: Renouncing ownership will leave the contract without an owner, thereby removing any functionality that is only available to the owner."
      },
      "transferOwnership(address)": {
        "details": "Transfers ownership of the contract to a new account (`newOwner`). Can only be called by the current owner."
      },
      "unpause()": {
        "details": "Called by a pauser to unpause, returns to normal state."
      }
    },
    "version": 1
  },
  "userdoc": {
    "kind": "user",
    "methods": {},
    "version": 1
  }
}