{
  "contractName": "ICO",
  "abi": [
    {
      "inputs": [
        {
          "internalType": "address",
          "name": "_tokenAddress",
          "type": "address"
        },
        {
          "internalType": "address",
          "name": "_whitelistAddress",
          "type": "address"
        },
        {
          "internalType": "address payable",
          "name": "_beneficiary",
          "type": "address"
        },
        {
          "internalType": "uint256",
          "name": "_baseEthUSDRate",
          "type": "uint256"
        }
      ],
      "stateMutability": "nonpayable",
      "type": "constructor"
    },
    {
      "anonymous": false,
      "inputs": [
        {
          "indexed": true,
          "internalType": "address",
          "name": "investor",
          "type": "address"
        },
        {
          "indexed": false,
          "internalType": "uint256",
          "name": "timestamp",
          "type": "uint256"
        }
      ],
      "name": "Buy",
      "type": "event"
    },
    {
      "anonymous": false,
      "inputs": [
        {
          "indexed": false,
          "internalType": "address",
          "name": "beneficiary",
          "type": "address"
        },
        {
          "indexed": false,
          "internalType": "uint256",
          "name": "timestamp",
          "type": "uint256"
        }
      ],
      "name": "ICOInitialized",
      "type": "event"
    },
    {
      "anonymous": false,
      "inputs": [
        {
          "indexed": true,
          "internalType": "address",
          "name": "previousOwner",
          "type": "address"
        },
        {
          "indexed": true,
          "internalType": "address",
          "name": "newOwner",
          "type": "address"
        }
      ],
      "name": "OwnershipTransferred",
      "type": "event"
    },
    {
      "anonymous": false,
      "inputs": [
        {
          "indexed": false,
          "internalType": "uint256",
          "name": "timestamp",
          "type": "uint256"
        }
      ],
      "name": "Paused",
      "type": "event"
    },
    {
      "anonymous": false,
      "inputs": [
        {
          "indexed": false,
          "internalType": "enum ICO.Phase",
          "name": "phase",
          "type": "uint8"
        },
        {
          "indexed": false,
          "internalType": "uint256",
          "name": "timestamp",
          "type": "uint256"
        }
      ],
      "name": "PhaseChange",
      "type": "event"
    },
    {
      "anonymous": false,
      "inputs": [
        {
          "indexed": false,
          "internalType": "uint256",
          "name": "timestamp",
          "type": "uint256"
        }
      ],
      "name": "Unpaused",
      "type": "event"
    },
    {
      "inputs": [
        {
          "internalType": "uint256",
          "name": "",
          "type": "uint256"
        }
      ],
      "name": "Bonus",
      "outputs": [
        {
          "internalType": "uint256",
          "name": "",
          "type": "uint256"
        }
      ],
      "stateMutability": "view",
      "type": "function"
    },
    {
      "inputs": [],
      "name": "beneficiary",
      "outputs": [
        {
          "internalType": "address payable",
          "name": "",
          "type": "address"
        }
      ],
      "stateMutability": "view",
      "type": "function"
    },
    {
      "inputs": [],
      "name": "ethUSDRate",
      "outputs": [
        {
          "internalType": "uint256",
          "name": "",
          "type": "uint256"
        }
      ],
      "stateMutability": "view",
      "type": "function"
    },
    {
      "inputs": [],
      "name": "owner",
      "outputs": [
        {
          "internalType": "address",
          "name": "",
          "type": "address"
        }
      ],
      "stateMutability": "view",
      "type": "function"
    },
    {
      "inputs": [],
      "name": "pause",
      "outputs": [],
      "stateMutability": "nonpayable",
      "type": "function"
    },
    {
      "inputs": [],
      "name": "paused",
      "outputs": [
        {
          "internalType": "bool",
          "name": "",
          "type": "bool"
        }
      ],
      "stateMutability": "view",
      "type": "function"
    },
    {
      "inputs": [],
      "name": "phase",
      "outputs": [
        {
          "internalType": "enum ICO.Phase",
          "name": "",
          "type": "uint8"
        }
      ],
      "stateMutability": "view",
      "type": "function"
    },
    {
      "inputs": [],
      "name": "renounceOwnership",
      "outputs": [],
      "stateMutability": "nonpayable",
      "type": "function"
    },
    {
      "inputs": [
        {
          "internalType": "address",
          "name": "newOwner",
          "type": "address"
        }
      ],
      "name": "transferOwnership",
      "outputs": [],
      "stateMutability": "nonpayable",
      "type": "function"
    },
    {
      "inputs": [],
      "name": "unpause",
      "outputs": [],
      "stateMutability": "nonpayable",
      "type": "function"
    },
    {
      "stateMutability": "payable",
      "type": "receive"
    },
    {
      "inputs": [],
      "name": "buy",
      "outputs": [],
      "stateMutability": "payable",
      "type": "function"
    }
  ],
  "bytecode": "0x60806040526040518060c001604052806109c481526020016107d081526020016105dc81526020016103e881526020016101f48152602001600081525060069060066200004e92919062000339565b506000600d60006101000a81548160ff021916908360068111156200006f57fe5b02179055503480156200008157600080fd5b5060405162001cc438038062001cc483398181016040526080811015620000a757600080fd5b8101908080519060200190929190805190602001909291908051906020019092919080519060200190929190505050816000620000e96200033160201b60201c565b9050806000806101000a81548173ffffffffffffffffffffffffffffffffffffffff021916908373ffffffffffffffffffffffffffffffffffffffff1602179055508073ffffffffffffffffffffffffffffffffffffffff16600073ffffffffffffffffffffffffffffffffffffffff167f8be0079c531659141344cd1fd0a4f28419497f9722a3daafe3b4186f6b6457e060405160405180910390a35060008060146101000a81548160ff02191690831515021790555080600160006101000a81548173ffffffffffffffffffffffffffffffffffffffff021916908373ffffffffffffffffffffffffffffffffffffffff1602179055505082600260006101000a81548173ffffffffffffffffffffffffffffffffffffffff021916908373ffffffffffffffffffffffffffffffffffffffff16021790555083600360006101000a81548173ffffffffffffffffffffffffffffffffffffffff021916908373ffffffffffffffffffffffffffffffffffffffff16021790555081600460006101000a81548173ffffffffffffffffffffffffffffffffffffffff021916908373ffffffffffffffffffffffffffffffffffffffff160217905550806005819055506000600d60006101000a81548160ff02191690836006811115620002cd57fe5b02179055507f6fef4b3c3822e5a5ded2809fccffeaf8d2c0ebf23994221ccc6758ff0fe97e0a8242604051808373ffffffffffffffffffffffffffffffffffffffff1681526020018281526020019250505060405180910390a1505050506200039d565b600033905090565b82600781019282156200036b579160200282015b828111156200036a5782518255916020019190600101906200034d565b5b5090506200037a91906200037e565b5090565b5b80821115620003995760008160009055506001016200037f565b5090565b61191780620003ad6000396000f3fe6080604052600436106100a05760003560e01c80638456cb59116100645780638456cb591461019f5780638918867c146101b65780638da5cb5b146101e1578063a6f2ae3a14610222578063b1c9fe6e1461022c578063f2fde38b14610262576100af565b806338af3eed146100b45780633f4ba83a146100f55780635c975abb1461010c5780636356cdac14610139578063715018a614610188576100af565b366100af576100ad6102b3565b005b600080fd5b3480156100c057600080fd5b506100c9610f39565b604051808273ffffffffffffffffffffffffffffffffffffffff16815260200191505060405180910390f35b34801561010157600080fd5b5061010a610f5f565b005b34801561011857600080fd5b506101216110da565b60405180821515815260200191505060405180910390f35b34801561014557600080fd5b506101726004803603602081101561015c57600080fd5b81019080803590602001909291905050506110f0565b6040518082815260200191505060405180910390f35b34801561019457600080fd5b5061019d611108565b005b3480156101ab57600080fd5b506101b4611275565b005b3480156101c257600080fd5b506101cb6113f2565b6040518082815260200191505060405180910390f35b3480156101ed57600080fd5b506101f66113f8565b604051808273ffffffffffffffffffffffffffffffffffffffff16815260200191505060405180910390f35b61022a6102b3565b005b34801561023857600080fd5b50610241611421565b6040518082600681111561025157fe5b815260200191505060405180910390f35b34801561026e57600080fd5b506102b16004803603602081101561028557600080fd5b81019080803573ffffffffffffffffffffffffffffffffffffffff169060200190929190505050611434565b005b600060149054906101000a900460ff1615610336576040517f08c379a00000000000000000000000000000000000000000000000000000000081526004018080602001828103825260108152602001807f5061757361626c653a207061757365640000000000000000000000000000000081525060200191505060405180910390fd5b6000600681111561034357fe5b600d60009054906101000a900460ff16600681111561035e57fe5b14801561038457506103806213c6806360ef2d2861162690919063ffffffff16565b4210155b156103ae576001600d60006101000a81548160ff021916908360068111156103a857fe5b02179055505b600160068111156103bb57fe5b600d60009054906101000a900460ff1660068111156103d657fe5b1480156103fc57506103f862278d006360ef2d2861162690919063ffffffff16565b4210155b15610426576002600d60006101000a81548160ff0219169083600681111561042057fe5b02179055505b6002600681111561043357fe5b600d60009054906101000a900460ff16600681111561044e57fe5b14801561047457506104706230c7806360ef2d2861162690919063ffffffff16565b4210155b156104a4576003600681111561048657fe5b600d60009054906101000a900460ff1660068111156104a157fe5b50505b600360068111156104b157fe5b600d60009054906101000a900460ff1660068111156104cc57fe5b1480156104f257506104ee623a02006360ef2d2861162690919063ffffffff16565b4210155b15610522576004600681111561050457fe5b600d60009054906101000a900460ff16600681111561051f57fe5b50505b6004600681111561052f57fe5b600d60009054906101000a900460ff16600681111561054a57fe5b148015610570575061056c62433c806360ef2d2861162690919063ffffffff16565b4210155b1561059a576005600d60006101000a81548160ff0219169083600681111561059457fe5b02179055505b600560068111156105a757fe5b600d60009054906101000a900460ff1660068111156105c257fe5b1480156105d357506361423ba74210155b156105fd576006600d60006101000a81548160ff021916908360068111156105f757fe5b02179055505b60068081111561060957fe5b600d60009054906101000a900460ff16600681111561062457fe5b1415610698576040517f08c379a000000000000000000000000000000000000000000000000000000000815260040180806020018281038252600d8152602001807f49434f2068617320656e6465640000000000000000000000000000000000000081525060200191505060405180910390fd5b6106c36305f5e1006106b5600554346116ae90919063ffffffff16565b61173490919063ffffffff16565b6101f4111561071d576040517f08c379a000000000000000000000000000000000000000000000000000000000815260040180806020018281038252602a81526020018061186f602a913960400191505060405180910390fd5b600260009054906101000a900473ffffffffffffffffffffffffffffffffffffffff1673ffffffffffffffffffffffffffffffffffffffff1663d936547e336040518263ffffffff1660e01b8152600401808273ffffffffffffffffffffffffffffffffffffffff16815260200191505060206040518083038186803b1580156107a657600080fd5b505afa1580156107ba573d6000803e3d6000fd5b505050506040513d60208110156107d057600080fd5b8101908080519060200190929190505050610853576040517f08c379a000000000000000000000000000000000000000000000000000000000815260040180806020018281038252601f8152602001807f4163636f756e742061646472657373206e6f742077686974656c69737465640081525060200191505060405180910390fd5b60006108996305f5e10061088b662386f26fc1000061087d600554346116ae90919063ffffffff16565b61173490919063ffffffff16565b61173490919063ffffffff16565b905060006108ec6127106108de6006600d60009054906101000a900460ff1660068111156108c357fe5b600781106108cd57fe5b0154856116ae90919063ffffffff16565b61173490919063ffffffff16565b9050610901818361162690919063ffffffff16565b9150600360009054906101000a900473ffffffffffffffffffffffffffffffffffffffff1673ffffffffffffffffffffffffffffffffffffffff166370a08231306040518263ffffffff1660e01b8152600401808273ffffffffffffffffffffffffffffffffffffffff16815260200191505060206040518083038186803b15801561098c57600080fd5b505afa1580156109a0573d6000803e3d6000fd5b505050506040513d60208110156109b657600080fd5b81019080805190602001909291905050508211610b7b57600360009054906101000a900473ffffffffffffffffffffffffffffffffffffffff1673ffffffffffffffffffffffffffffffffffffffff1663a9059cbb33846040518363ffffffff1660e01b8152600401808373ffffffffffffffffffffffffffffffffffffffff16815260200182815260200192505050602060405180830381600087803b158015610a6057600080fd5b505af1158015610a74573d6000803e3d6000fd5b505050506040513d6020811015610a8a57600080fd5b8101908080519060200190929190505050610b0d576040517f08c379a00000000000000000000000000000000000000000000000000000000081526004018080602001828103825260158152602001807f546f6b656e207472616e73666572206661696c6564000000000000000000000081525060200191505060405180910390fd5b600460009054906101000a900473ffffffffffffffffffffffffffffffffffffffff1673ffffffffffffffffffffffffffffffffffffffff166108fc349081150290604051600060405180830381858888f19350505050158015610b75573d6000803e3d6000fd5b50610f35565b6000610c6c662386f26fc10000610c5e600360009054906101000a900473ffffffffffffffffffffffffffffffffffffffff1673ffffffffffffffffffffffffffffffffffffffff166370a08231306040518263ffffffff1660e01b8152600401808273ffffffffffffffffffffffffffffffffffffffff16815260200191505060206040518083038186803b158015610c1457600080fd5b505afa158015610c28573d6000803e3d6000fd5b505050506040513d6020811015610c3e57600080fd5b8101908080519060200190929190505050346117bd90919063ffffffff16565b6116ae90919063ffffffff16565b9050600460009054906101000a900473ffffffffffffffffffffffffffffffffffffffff1673ffffffffffffffffffffffffffffffffffffffff166108fc610cbd83346117bd90919063ffffffff16565b9081150290604051600060405180830381858888f19350505050158015610ce8573d6000803e3d6000fd5b503373ffffffffffffffffffffffffffffffffffffffff166108fc829081150290604051600060405180830381858888f19350505050158015610d2f573d6000803e3d6000fd5b50600360009054906101000a900473ffffffffffffffffffffffffffffffffffffffff1673ffffffffffffffffffffffffffffffffffffffff1663a9059cbb33600360009054906101000a900473ffffffffffffffffffffffffffffffffffffffff1673ffffffffffffffffffffffffffffffffffffffff166370a08231306040518263ffffffff1660e01b8152600401808273ffffffffffffffffffffffffffffffffffffffff16815260200191505060206040518083038186803b158015610df857600080fd5b505afa158015610e0c573d6000803e3d6000fd5b505050506040513d6020811015610e2257600080fd5b81019080805190602001909291905050506040518363ffffffff1660e01b8152600401808373ffffffffffffffffffffffffffffffffffffffff16815260200182815260200192505050602060405180830381600087803b158015610e8657600080fd5b505af1158015610e9a573d6000803e3d6000fd5b505050506040513d6020811015610eb057600080fd5b8101908080519060200190929190505050610f33576040517f08c379a00000000000000000000000000000000000000000000000000000000081526004018080602001828103825260158152602001807f546f6b656e207472616e73666572206661696c6564000000000000000000000081525060200191505060405180910390fd5b505b5050565b600460009054906101000a900473ffffffffffffffffffffffffffffffffffffffff1681565b600160009054906101000a900473ffffffffffffffffffffffffffffffffffffffff1673ffffffffffffffffffffffffffffffffffffffff163373ffffffffffffffffffffffffffffffffffffffff1614611005576040517f08c379a00000000000000000000000000000000000000000000000000000000081526004018080602001828103825260288152602001806118996028913960400191505060405180910390fd5b600060149054906101000a900460ff16611087576040517f08c379a00000000000000000000000000000000000000000000000000000000081526004018080602001828103825260148152602001807f5061757361626c653a206e6f742070617573656400000000000000000000000081525060200191505060405180910390fd5b60008060146101000a81548160ff0219169083151502179055507f9dd715fed52c25e642f97653bb4c4339ad98fe6d6e130348be82ae5d86383a8c426040518082815260200191505060405180910390a1565b60008060149054906101000a900460ff16905090565b600681600781106110fd57fe5b016000915090505481565b611110611840565b73ffffffffffffffffffffffffffffffffffffffff1661112e6113f8565b73ffffffffffffffffffffffffffffffffffffffff16146111b7576040517f08c379a00000000000000000000000000000000000000000000000000000000081526004018080602001828103825260208152602001807f4f776e61626c653a2063616c6c6572206973206e6f7420746865206f776e657281525060200191505060405180910390fd5b600073ffffffffffffffffffffffffffffffffffffffff1660008054906101000a900473ffffffffffffffffffffffffffffffffffffffff1673ffffffffffffffffffffffffffffffffffffffff167f8be0079c531659141344cd1fd0a4f28419497f9722a3daafe3b4186f6b6457e060405160405180910390a360008060006101000a81548173ffffffffffffffffffffffffffffffffffffffff021916908373ffffffffffffffffffffffffffffffffffffffff160217905550565b600160009054906101000a900473ffffffffffffffffffffffffffffffffffffffff1673ffffffffffffffffffffffffffffffffffffffff163373ffffffffffffffffffffffffffffffffffffffff161461131b576040517f08c379a00000000000000000000000000000000000000000000000000000000081526004018080602001828103825260288152602001806118996028913960400191505060405180910390fd5b600060149054906101000a900460ff161561139e576040517f08c379a00000000000000000000000000000000000000000000000000000000081526004018080602001828103825260108152602001807f5061757361626c653a207061757365640000000000000000000000000000000081525060200191505060405180910390fd5b6001600060146101000a81548160ff0219169083151502179055507f32fb7c9891bc4f963c7de9f1186d2a7755c7d6e9f4604dabe1d8bb3027c2f49e426040518082815260200191505060405180910390a1565b60055481565b60008060009054906101000a900473ffffffffffffffffffffffffffffffffffffffff16905090565b600d60009054906101000a900460ff1681565b61143c611840565b73ffffffffffffffffffffffffffffffffffffffff1661145a6113f8565b73ffffffffffffffffffffffffffffffffffffffff16146114e3576040517f08c379a00000000000000000000000000000000000000000000000000000000081526004018080602001828103825260208152602001807f4f776e61626c653a2063616c6c6572206973206e6f7420746865206f776e657281525060200191505060405180910390fd5b600073ffffffffffffffffffffffffffffffffffffffff168173ffffffffffffffffffffffffffffffffffffffff161415611569576040517f08c379a00000000000000000000000000000000000000000000000000000000081526004018080602001828103825260268152602001806118496026913960400191505060405180910390fd5b8073ffffffffffffffffffffffffffffffffffffffff1660008054906101000a900473ffffffffffffffffffffffffffffffffffffffff1673ffffffffffffffffffffffffffffffffffffffff167f8be0079c531659141344cd1fd0a4f28419497f9722a3daafe3b4186f6b6457e060405160405180910390a3806000806101000a81548173ffffffffffffffffffffffffffffffffffffffff021916908373ffffffffffffffffffffffffffffffffffffffff16021790555050565b6000808284019050838110156116a4576040517f08c379a000000000000000000000000000000000000000000000000000000000815260040180806020018281038252601b8152602001807f536166654d6174683a206164646974696f6e206f766572666c6f77000000000081525060200191505060405180910390fd5b8091505092915050565b6000808314156116c1576000905061172e565b60008284029050828482816116d257fe5b0414611729576040517f08c379a00000000000000000000000000000000000000000000000000000000081526004018080602001828103825260218152602001806118c16021913960400191505060405180910390fd5b809150505b92915050565b60008082116117ab576040517f08c379a000000000000000000000000000000000000000000000000000000000815260040180806020018281038252601a8152602001807f536166654d6174683a206469766973696f6e206279207a65726f00000000000081525060200191505060405180910390fd5b8183816117b457fe5b04905092915050565b600082821115611835576040517f08c379a000000000000000000000000000000000000000000000000000000000815260040180806020018281038252601e8152602001807f536166654d6174683a207375627472616374696f6e206f766572666c6f77000081525060200191505060405180910390fd5b818303905092915050565b60003390509056fe4f776e61626c653a206e6577206f776e657220697320746865207a65726f2061646472657373416d6f756e74206c657373207468616e206d696e696d756d20696e766573746d656e7420616d6f756e74556e617574686f7269736564206163636573733a204e6f74207468652062656e6566696369617279536166654d6174683a206d756c7469706c69636174696f6e206f766572666c6f77a264697066735822122075a3fdaaba030a872b3fee5ccc172a4b963cb243010573bcb0278a2d09d1715c64736f6c634300060c0033",
  "immutableReferences": {},
  "source": "// SPDX-License-Identifier: Unlicensed\npragma solidity ^0.6.12;\n\nimport { SafeMath } from \"@openzeppelin/contracts/math/SafeMath.sol\";\nimport \"@openzeppelin/contracts/token/ERC20/IERC20.sol\";\nimport \"@chainlink/contracts/src/v0.6/interfaces/AggregatorV3Interface.sol\";\nimport \"./QuillToken.sol\";\nimport \"./Whitelist.sol\";\nimport \"./Pausable.sol\";\n\ncontract ICO is Pausable\n{\n    using SafeMath for uint256;\n    \n    Whitelist private whitelist;\n    QuillToken private token;\n    enum Phase { Private, Pre, Crowd1, Crowd2, Crowd3, Crowd4, Finish }\n\n    address payable public beneficiary; // Address of the client's wallet\n    uint256 constant START_TIME = 1626287400; // 15th July 2021 00:00:00 hrs (+5:30 GMT)\n    uint256 constant END_TIME = 1631730599; // 15th September 2021 23:59:59 hrs (+5:30 GMT)\n    uint256 constant TOKEN_RATE = 10e15; // Price of QUILL token in USD ($0.001) represented with 18 decimals\n    uint256 public ethUSDRate; // ETH-USD Rate\n    uint256[7] public Bonus = [uint256(2500), uint256(2000), uint256(1500), uint256(1000), uint256(500), uint256(0)];\n    Phase public phase = Phase.Private;\n\n\n    event ICOInitialized(address beneficiary, uint256 timestamp);\n    event PhaseChange(Phase phase, uint256 timestamp);\n    event Buy(address indexed investor, uint256 timestamp);\n\n\n    // Redundant ?\n    modifier onlyBeneficiary() \n    {\n        require(msg.sender == beneficiary, \"Unauthorised access: Not the beneficiary\");\n        _;\n    }\n    \n    modifier changePhase() {\n        if(phase == Phase.Private && block.timestamp >= START_TIME.add(15 days))\n            phase = Phase.Pre;\n        if(phase == Phase.Pre && block.timestamp >= START_TIME.add(30 days))\n            phase = Phase.Crowd1;\n        if(phase == Phase.Crowd1 && block.timestamp >= START_TIME.add(30 days + 1 weeks))\n            phase == Phase.Crowd2;\n        if(phase == Phase.Crowd2 && block.timestamp >= START_TIME.add(30 days + 2 weeks))\n            phase == Phase.Crowd3;\n        if(phase == Phase.Crowd3 && block.timestamp >= START_TIME.add(30 days + 3 weeks))\n            phase = Phase.Crowd4;\n        if(phase == Phase.Crowd4 && block.timestamp >= END_TIME)\n            phase = Phase.Finish;\n        _;\n    }\n\n    constructor(\n        address _tokenAddress, \n        address _whitelistAddress,\n        address payable _beneficiary,\n        uint256 _baseEthUSDRate // Remove this when deploying to the testnet and set the rate using oracle\n    ) public Pausable(_beneficiary)\n    {\n        whitelist = Whitelist(_whitelistAddress);\n        token = QuillToken(_tokenAddress);\n        beneficiary = _beneficiary;\n        ethUSDRate = _baseEthUSDRate;\n        phase = Phase.Private;\n\n        emit ICOInitialized(_beneficiary, block.timestamp);\n    }\n\n    receive() external payable\n    {\n        buy();\n    }\n\n    function buy() public payable whenNotPaused changePhase\n    {\n        require(phase != Phase.Finish, \"ICO has ended\");\n        require(500 <= msg.value.mul(ethUSDRate).div(10**8), \"Amount less than minimum investment amount\");\n        require(whitelist.whitelisted(msg.sender), \"Account address not whitelisted\");\n\n        // To calculate token amount we need the ethUSDRate, the ether sent and the bonus rate\n        uint256 tokenAmount = (msg.value).mul(ethUSDRate).div(TOKEN_RATE).div(10**8);\n        uint256 bonusAmount = tokenAmount.mul(Bonus[uint(phase)]).div(10**4);\n        tokenAmount = tokenAmount.add(bonusAmount);\n\n        // (tokenAmount.add(bonusAmount) < token.balanceOf(address(this)))? \n        // tokenAmount = tokenAmount.add(bonusAmount): \n        // tokenAmount = token.balanceOf(address(this));\n\n        // require(token.transfer(msg.sender, tokenAmount), \"Token transfer failed\");\n\n        if(tokenAmount <= token.balanceOf(address(this)))\n        {\n            require(token.transfer(msg.sender, tokenAmount), \"Token transfer failed\");\n            beneficiary.transfer(msg.value);\n        }\n\n        else\n        {\n            uint256 ethAmountLeft = msg.value.sub(token.balanceOf(address(this))).mul(TOKEN_RATE);\n            beneficiary.transfer(msg.value.sub(ethAmountLeft));\n            msg.sender.transfer(ethAmountLeft);\n\n            require(token.transfer(msg.sender, token.balanceOf(address(this))), \"Token transfer failed\");\n        }   \n    }\n\n    // function rebase() external onlyBeneficiary\n    // {\n    //     // TODO write a function using the oracle contract\n    // }\n\n    // // Redundant functions ?\n    // function pauseICO() external \n    // {\n    //     pause();\n    // }\n\n    // function unpauseICO() external\n    // {\n    //     unpause();\n    // }\n}",
  "sourcePath": "/media/rashtrakoff/CHINMAYHDD/Blockchain_Projects/ICO/contracts/ICO.sol",
  "compiler": {
    "name": "solc",
    "version": "0.6.12+commit.27d51765.Emscripten.clang"
  },
  "schemaVersion": "3.3.4",
  "updatedAt": "2021-05-05T10:31:17.537Z",
  "devdoc": {
    "kind": "dev",
    "methods": {
      "owner()": {
        "details": "Returns the address of the current owner."
      },
      "pause()": {
        "details": "Called by a pauser to pause, triggers stopped state."
      },
      "paused()": {
        "details": "Returns true if the contract is paused, and false otherwise."
      },
      "renounceOwnership()": {
        "details": "Leaves the contract without owner. It will not be possible to call `onlyOwner` functions anymore. Can only be called by the current owner. NOTE: Renouncing ownership will leave the contract without an owner, thereby removing any functionality that is only available to the owner."
      },
      "transferOwnership(address)": {
        "details": "Transfers ownership of the contract to a new account (`newOwner`). Can only be called by the current owner."
      },
      "unpause()": {
        "details": "Called by a pauser to unpause, returns to normal state."
      }
    },
    "version": 1
  },
  "userdoc": {
    "kind": "user",
    "methods": {},
    "version": 1
  }
}